{
  "contractName": "Payment",
  "abi": [
    {
      "inputs": [],
      "payable": false,
      "stateMutability": "nonpayable",
      "type": "constructor"
    },
    {
      "anonymous": false,
      "inputs": [
        {
          "indexed": false,
          "internalType": "address",
          "name": "_transferTo",
          "type": "address"
        },
        {
          "indexed": false,
          "internalType": "address",
          "name": "_transferFrom",
          "type": "address"
        },
        {
          "indexed": false,
          "internalType": "uint256",
          "name": "amount",
          "type": "uint256"
        }
      ],
      "name": "TransferFund",
      "type": "event"
    },
    {
      "constant": false,
      "inputs": [
        {
          "internalType": "address payable",
          "name": "_transferTo",
          "type": "address"
        }
      ],
      "name": "transferFund",
      "outputs": [
        {
          "internalType": "bool",
          "name": "",
          "type": "bool"
        }
      ],
      "payable": true,
      "stateMutability": "payable",
      "type": "function"
    },
    {
      "constant": false,
      "inputs": [],
      "name": "getBalanceOfCurrentAccount",
      "outputs": [
        {
          "internalType": "uint256",
          "name": "",
          "type": "uint256"
        }
      ],
      "payable": true,
      "stateMutability": "payable",
      "type": "function"
    }
  ],
  "bytecode": "0x608060405234801561001057600080fd5b50336000806101000a81548173ffffffffffffffffffffffffffffffffffffffff021916908373ffffffffffffffffffffffffffffffffffffffff1602179055506102b4806100606000396000f3fe6080604052600436106100295760003560e01c8063cd4558fd1461002e578063eba1877b1461008a575b600080fd5b6100706004803603602081101561004457600080fd5b81019080803573ffffffffffffffffffffffffffffffffffffffff1690602001909291905050506100a8565b604051808215151515815260200191505060405180910390f35b61009261023f565b6040518082815260200191505060405180910390f35b600081600160006101000a81548173ffffffffffffffffffffffffffffffffffffffff021916908373ffffffffffffffffffffffffffffffffffffffff160217905550600160009054906101000a900473ffffffffffffffffffffffffffffffffffffffff1673ffffffffffffffffffffffffffffffffffffffff166108fc349081150290604051600060405180830381858888f19350505050158015610153573d6000803e3d6000fd5b507f41f7a8a1a70f43ecf6769f65a9933ba3370058d8e3422511a890553ba75ff3e8600160009054906101000a900473ffffffffffffffffffffffffffffffffffffffff166000809054906101000a900473ffffffffffffffffffffffffffffffffffffffff1634604051808473ffffffffffffffffffffffffffffffffffffffff1673ffffffffffffffffffffffffffffffffffffffff1681526020018373ffffffffffffffffffffffffffffffffffffffff1673ffffffffffffffffffffffffffffffffffffffff168152602001828152602001935050505060405180910390a160019050919050565b60008060009054906101000a900473ffffffffffffffffffffffffffffffffffffffff1673ffffffffffffffffffffffffffffffffffffffff163190509056fea265627a7a723158203e961ad6f895b99ed22fc4000e06de5f58771903a0485667a9fb7b2e9ed5bb4964736f6c63430005100032",
  "source": "// SPDX-License-Identifier: MIT\r\npragma solidity >= 0.4.17 < 0.9.0 ;\r\ncontract Payment {\r\naddress transferFrom;\r\naddress  payable transferTo;\r\nuint paymentAmount;\r\nconstructor() public {\r\ntransferFrom = msg.sender;\r\n}\r\nevent TransferFund(address  _transferTo, address _transferFrom, uint amount);\r\nfunction transferFund(address payable _transferTo) public payable returns (bool){\r\ntransferTo = _transferTo;\r\ntransferTo.transfer(msg.value);\r\nemit TransferFund(transferTo, transferFrom, msg.value);\r\nreturn true;\r\n}\r\nfunction getBalanceOfCurrentAccount() public payable returns (uint) {\r\nreturn transferFrom.balance;\r\n}\r\n}",
  "sourcePath": "C:/Payment/contracts/Payment.sol",
  "compiler": {
    "name": "solc",
    "version": "0.5.16+commit.9c3226ce.Emscripten.clang"
  },
  "schemaVersion": "3.3.4",
  "updatedAt": "2021-04-06T09:35:12.438Z",
  "networkType": "ethereum",
  "devdoc": {
    "methods": {}
  },
  "userdoc": {
    "methods": {}
  }
}